{
  "contractName": "CourseReview",
  "abi": [
    {
      "anonymous": false,
      "inputs": [
        {
          "indexed": false,
          "internalType": "uint8",
          "name": "question1Rating",
          "type": "uint8"
        },
        {
          "indexed": false,
          "internalType": "uint8",
          "name": "question2Rating",
          "type": "uint8"
        },
        {
          "indexed": false,
          "internalType": "string",
          "name": "reviewText",
          "type": "string"
        },
        {
          "indexed": false,
          "internalType": "address",
          "name": "studentAddress",
          "type": "address"
        }
      ],
      "name": "ReviewSubmitted",
      "type": "event"
    },
    {
      "inputs": [
        {
          "internalType": "uint256",
          "name": "",
          "type": "uint256"
        }
      ],
      "name": "reviews",
      "outputs": [
        {
          "internalType": "uint8",
          "name": "question1Rating",
          "type": "uint8"
        },
        {
          "internalType": "uint8",
          "name": "question2Rating",
          "type": "uint8"
        },
        {
          "internalType": "string",
          "name": "reviewText",
          "type": "string"
        },
        {
          "internalType": "address",
          "name": "studentAddress",
          "type": "address"
        }
      ],
      "stateMutability": "view",
      "type": "function",
      "constant": true
    },
    {
      "inputs": [
        {
          "internalType": "uint8",
          "name": "_question1Rating",
          "type": "uint8"
        },
        {
          "internalType": "uint8",
          "name": "_question2Rating",
          "type": "uint8"
        },
        {
          "internalType": "string",
          "name": "_reviewText",
          "type": "string"
        }
      ],
      "name": "storeReview",
      "outputs": [],
      "stateMutability": "nonpayable",
      "type": "function"
    },
    {
      "inputs": [
        {
          "internalType": "uint256",
          "name": "index",
          "type": "uint256"
        }
      ],
      "name": "getReview",
      "outputs": [
        {
          "components": [
            {
              "internalType": "uint8",
              "name": "question1Rating",
              "type": "uint8"
            },
            {
              "internalType": "uint8",
              "name": "question2Rating",
              "type": "uint8"
            },
            {
              "internalType": "string",
              "name": "reviewText",
              "type": "string"
            },
            {
              "internalType": "address",
              "name": "studentAddress",
              "type": "address"
            }
          ],
          "internalType": "struct CourseReview.Review",
          "name": "",
          "type": "tuple"
        }
      ],
      "stateMutability": "view",
      "type": "function",
      "constant": true
    },
    {
      "inputs": [],
      "name": "getReviewCount",
      "outputs": [
        {
          "internalType": "uint256",
          "name": "",
          "type": "uint256"
        }
      ],
      "stateMutability": "view",
      "type": "function",
      "constant": true
    }
  ],
  "bytecode": "0x608060405234801561001057600080fd5b50610cbd806100206000396000f3fe608060405234801561001057600080fd5b506004361061004c5760003560e01c8063709dc7fb14610051578063990581b61461006f578063e83ddcea1461009f578063fdfb9508146100d2575b600080fd5b6100596100ee565b6040516100669190610a38565b60405180910390f35b61008960048036038101906100849190610746565b6100fa565b6040516100969190610a16565b60405180910390f35b6100b960048036038101906100b49190610746565b6102c5565b6040516100c99493929190610a53565b60405180910390f35b6100ec60048036038101906100e7919061076f565b6103c7565b005b60008080549050905090565b6101026105cd565b6000805490508210610149576040517f08c379a0000000000000000000000000000000000000000000000000000000008152600401610140906109b6565b60405180910390fd5b60008281548110610183577f4e487b7100000000000000000000000000000000000000000000000000000000600052603260045260246000fd5b90600052602060002090600302016040518060800160405290816000820160009054906101000a900460ff1660ff1660ff1681526020016000820160019054906101000a900460ff1660ff1660ff1681526020016001820180546101e690610bb8565b80601f016020809104026020016040519081016040528092919081815260200182805461021290610bb8565b801561025f5780601f106102345761010080835404028352916020019161025f565b820191906000526020600020905b81548152906001019060200180831161024257829003601f168201915b505050505081526020016002820160009054906101000a900473ffffffffffffffffffffffffffffffffffffffff1673ffffffffffffffffffffffffffffffffffffffff1673ffffffffffffffffffffffffffffffffffffffff16815250509050919050565b600081815481106102d557600080fd5b90600052602060002090600302016000915090508060000160009054906101000a900460ff16908060000160019054906101000a900460ff169080600101805461031e90610bb8565b80601f016020809104026020016040519081016040528092919081815260200182805461034a90610bb8565b80156103975780601f1061036c57610100808354040283529160200191610397565b820191906000526020600020905b81548152906001019060200180831161037a57829003601f168201915b5050505050908060020160009054906101000a900473ffffffffffffffffffffffffffffffffffffffff16905084565b60018360ff16101580156103df575060058360ff1611155b61041e576040517f08c379a0000000000000000000000000000000000000000000000000000000008152600401610415906109f6565b60405180910390fd5b60018260ff1610158015610436575060058260ff1611155b610475576040517f08c379a000000000000000000000000000000000000000000000000000000000815260040161046c906109d6565b60405180910390fd5b600060405180608001604052808560ff1681526020018460ff1681526020018381526020013373ffffffffffffffffffffffffffffffffffffffff168152509050600081908060018154018082558091505060019003906000526020600020906003020160009091909190915060008201518160000160006101000a81548160ff021916908360ff16021790555060208201518160000160016101000a81548160ff021916908360ff1602179055506040820151816001019080519060200190610540929190610611565b5060608201518160020160006101000a81548173ffffffffffffffffffffffffffffffffffffffff021916908373ffffffffffffffffffffffffffffffffffffffff16021790555050507feffad9289cfa76f2bfe5d30a51e84026ed15bd5fb7557b21c9cd34d8b4a5b564848484336040516105bf9493929190610a53565b60405180910390a150505050565b6040518060800160405280600060ff168152602001600060ff16815260200160608152602001600073ffffffffffffffffffffffffffffffffffffffff1681525090565b82805461061d90610bb8565b90600052602060002090601f01602090048101928261063f5760008555610686565b82601f1061065857805160ff1916838001178555610686565b82800160010185558215610686579182015b8281111561068557825182559160200191906001019061066a565b5b5090506106939190610697565b5090565b5b808211156106b0576000816000905550600101610698565b5090565b60006106c76106c284610ad0565b610a9f565b9050828152602081018484840111156106df57600080fd5b6106ea848285610b76565b509392505050565b600082601f83011261070357600080fd5b81356107138482602086016106b4565b91505092915050565b60008135905061072b81610c59565b92915050565b60008135905061074081610c70565b92915050565b60006020828403121561075857600080fd5b60006107668482850161071c565b91505092915050565b60008060006060848603121561078457600080fd5b600061079286828701610731565b93505060206107a386828701610731565b925050604084013567ffffffffffffffff8111156107c057600080fd5b6107cc868287016106f2565b9150509250925092565b6107df81610b2d565b82525050565b6107ee81610b2d565b82525050565b60006107ff82610b00565b6108098185610b0b565b9350610819818560208601610b85565b61082281610c48565b840191505092915050565b600061083882610b00565b6108428185610b1c565b9350610852818560208601610b85565b61085b81610c48565b840191505092915050565b6000610873601583610b1c565b91507f52657669657720646f6573206e6f7420657869737400000000000000000000006000830152602082019050919050565b60006108b3601d83610b1c565b91507f496e76616c696420726174696e6720666f72207175657374696f6e20320000006000830152602082019050919050565b60006108f3601d83610b1c565b91507f496e76616c696420726174696e6720666f72207175657374696f6e20310000006000830152602082019050919050565b600060808301600083015161093e6000860182610998565b5060208301516109516020860182610998565b506040830151848203604086015261096982826107f4565b915050606083015161097e60608601826107d6565b508091505092915050565b61099281610b5f565b82525050565b6109a181610b69565b82525050565b6109b081610b69565b82525050565b600060208201905081810360008301526109cf81610866565b9050919050565b600060208201905081810360008301526109ef816108a6565b9050919050565b60006020820190508181036000830152610a0f816108e6565b9050919050565b60006020820190508181036000830152610a308184610926565b905092915050565b6000602082019050610a4d6000830184610989565b92915050565b6000608082019050610a6860008301876109a7565b610a7560208301866109a7565b8181036040830152610a87818561082d565b9050610a9660608301846107e5565b95945050505050565b6000604051905081810181811067ffffffffffffffff82111715610ac657610ac5610c19565b5b8060405250919050565b600067ffffffffffffffff821115610aeb57610aea610c19565b5b601f19601f8301169050602081019050919050565b600081519050919050565b600082825260208201905092915050565b600082825260208201905092915050565b6000610b3882610b3f565b9050919050565b600073ffffffffffffffffffffffffffffffffffffffff82169050919050565b6000819050919050565b600060ff82169050919050565b82818337600083830152505050565b60005b83811015610ba3578082015181840152602081019050610b88565b83811115610bb2576000848401525b50505050565b60006002820490506001821680610bd057607f821691505b60208210811415610be457610be3610bea565b5b50919050565b7f4e487b7100000000000000000000000000000000000000000000000000000000600052602260045260246000fd5b7f4e487b7100000000000000000000000000000000000000000000000000000000600052604160045260246000fd5b6000601f19601f8301169050919050565b610c6281610b5f565b8114610c6d57600080fd5b50565b610c7981610b69565b8114610c8457600080fd5b5056fea2646970667358221220f460ff32431e7d6f92d3b81e3f851eb4cf98dd197e7cab835a2d1f25b4fd44d864736f6c63430008000033",
  "immutableReferences": {},
  "source": "// SPDX-License-Identifier: MIT\r\npragma solidity ^0.8.0;\r\n\r\ncontract CourseReview {\r\n    struct Review {\r\n        uint8 question1Rating; // Rating for course content (1-5)\r\n        uint8 question2Rating; // Rating for professor's teaching (1-5)\r\n        string reviewText;      // Text review\r\n        address studentAddress; // Address of the student\r\n    }\r\n\r\n    // Array to store reviews\r\n    Review[] public reviews;\r\n\r\n    // Event to emit when a review is submitted\r\n    event ReviewSubmitted(\r\n        uint8 question1Rating,\r\n        uint8 question2Rating,\r\n        string reviewText,\r\n        address studentAddress\r\n    );\r\n\r\n    // Function to submit a review\r\n    function storeReview(uint8 _question1Rating, uint8 _question2Rating, string memory _reviewText) public {\r\n        require(_question1Rating >= 1 && _question1Rating <= 5, \"Invalid rating for question 1\");\r\n        require(_question2Rating >= 1 && _question2Rating <= 5, \"Invalid rating for question 2\");\r\n\r\n        // Create a new review\r\n        Review memory newReview = Review({\r\n            question1Rating: _question1Rating,\r\n            question2Rating: _question2Rating,\r\n            reviewText: _reviewText,\r\n            studentAddress: msg.sender\r\n        });\r\n\r\n        // Store the review\r\n        reviews.push(newReview);\r\n\r\n        // Emit event\r\n        emit ReviewSubmitted(_question1Rating, _question2Rating, _reviewText, msg.sender);\r\n    }\r\n\r\n    // Function to retrieve a review by index\r\n    function getReview(uint256 index) public view returns (Review memory) {\r\n        require(index < reviews.length, \"Review does not exist\");\r\n        return reviews[index];\r\n    }\r\n\r\n    // Function to get the total number of reviews\r\n    function getReviewCount() public view returns (uint256) {\r\n        return reviews.length;\r\n    }\r\n}\r\n",
  "sourcePath": "C:\\Users\\Lenovo\\OneDrive\\Desktop\\course-review-dapp\\contracts\\CourseReview.sol",
  "compiler": {
    "name": "solc",
    "version": "0.8.0+commit.c7dfd78e.Emscripten.clang"
  },
  "schemaVersion": "3.4.16",
  "updatedAt": "2024-10-12T21:03:54.703Z",
  "networkType": "ethereum",
  "devdoc": {
    "kind": "dev",
    "methods": {},
    "version": 1
  },
  "userdoc": {
    "kind": "user",
    "methods": {},
    "version": 1
  }
}